:0400000046EF00F0D7
:100008001282FACF0DF0FBCF0EF00E01C2A10FEF56
:1000180000F011EF00F01CEF00F0CAA116EF00F09D
:1000280018EF00F01CEF00F085EC01F040EF00F055
:10003800C2A321EF00F023EF00F02EEF00F0CAA3D7
:1000480028EF00F02AEF00F02EEF00F080EC01F02E
:1000580040EF00F0C2A533EF00F035EF00F040EFBD
:1000680000F0CAA53AEF00F03CEF00F040EF00F0D6
:100078007BEC01F040EF00F00EC0FBFF0DC0FAFF73
:10008800129211004FEF01F0000E836E000E846E85
:10009800000E856E88688968BF0E8A6E7F0E0F0114
:1000A800216FF80E196F1169000E2D6F000E186F71
:1000B800000E106F000E206F000E0F6F000E176FEE
:1000C800000E1F6F0E6916691E690D6915691D6995
:1000D800080E2A6F170E0E01B56F080EA16F0A0ED3
:1000E800A36F090EA26F090EFD6F1200000E6A6E53
:1000F800000E6B6E000E6C6E000E6D6E000E686E5C
:10010800000E696E000E666E000E0F015F6F000E26
:100118005D6F000E5E6F000E596F020E5A6F000E73
:100128005B6F000E656E000E586F000E566F000E66
:10013800576F840E606E000E5C6F12000E01CA913C
:10014800F2801C0E0F6E030E106E67EC01F00E01AC
:10015800C281CA93F2821A0E0F6E030E106E62EC01
:1001680001F00E01C283CA95F284180E0F6E030EB9
:10017800106E5DEC01F00E01C2851200080E9F6E34
:10018800900E9D6E240E9E6E010E9B6E000E9C6E50
:10019800000E0F6E000E106E71EC01F0000E0F6E67
:1001A800000E106E6CEC01F0000E0F6E000E106E5B
:1001B80076EC01F0000E116E120007500810D8B44A
:1001C800E8EF00F0EAEF00F0F7EF00F002D8F7EF01
:1001D80000F00500FA6E0750FD6E0850FE6EF850EC
:1001E800FF6EFA501200120009500A10D8B4FFEF3F
:1001F80000F001EF01F00EEF01F002D80EEF01F070
:100208000500FA6E0950FD6E0A50FE6EF850FF6E3A
:10021800FA50120012000B500C10D8B416EF01F06F
:1002280018EF01F025EF01F002D825EF01F00500E5
:10023800FA6E0B50FD6E0C50FE6EF850FF6EFA50C1
:10024800120012008AEC01F035EC01F048EC00F0E5
:1002580043EC01F07AEC00F0A2EC00F0C2EC00F004
:100268001200000E0E01E16F000EE26F000EE36F48
:10027800000EE46F000EE56F000EE66F1200700EC0
:100288000E01D86F000EDA6F000EDC6F020EDE6F03
:10029800000EDD6F1200116A12901292000EF86EB5
:1002A800000157EF01F026EC01F059EF01F046EF9D
:1002B80000F00FC007F010C008F012000FC009F0DE
:1002C80010C00AF012000FC00BF010C00CF01200A2
:1002D8000FC003F010C004F012000FC005F010C0EA
:1002E80006F012000FC001F010C002F012000E015B
:1002F800CA95E1EC00F012000E01CA93F8EC00F088
:1003080012000E01CA910FEC01F01200F29A1200CD
:06031800120012001200A9
:020000040020DA
:10000000FF0FFF0FFF0FFF0FFF0FFF0FFF0FFF0F80
:020000040030CA
:0C000000FCFFFFFF9FFFFFFFFFFFFFFF63
:00000001FF
