:0400000032EF00F0EB
:100008001582FACF0DF0FBCF0EF00E01C2A10FEF53
:1000180000F011EF00F01CEF00F0CAA116EF00F09D
:1000280018EF00F01CEF00F069EC05F02CEF00F081
:10003800C2A321EF00F023EF00F02CEF00F0CAA3D9
:1000480028EF00F02AEF00F02CEF00F064EC05F048
:100058000EC0FBFF0DC0FAFF1592110032EF05F03C
:090800000041540D0A0D0A00002C
:10080A00000E836E000E846E000E856E88688968FD
:10081A00BF0E8A6E7F0E0F01216FFC0E196F1169D0
:10082A00000E2D6F000E186F000E106F000E206F55
:10083A00000E0F6F000E176F000E1F6F0E691669FC
:10084A001E690D6915691D69080E2A6F170E0E01BA
:10085A00B56F080EA16F090EA26F090EFD6F120087
:10086A00000E6A6E000E6B6E000E6C6E000E6D6EE0
:10087A00000E686E000E696E000E666E000E0F01A5
:10088A005F6F000E5D6F000E5E6F000E596F020EF5
:10089A005A6F000E5B6F000E656E000E586F000EE9
:1008AA00566F000E576F840E606E000E5C6F12005A
:1008BA0073EF04F03CEC05F00009D8B467EF04F0DC
:1008CA0069EF04F073EF04F010C0F6FF11C0F7FFF0
:1008DA000800F5501AEC05F0104A112A10C0F6FF6C
:1008EA0011C0F7FF0800F5500009D8A47FEF04F003
:1008FA0081EF04F05FEF04F01200080E9F6E900E75
:10090A009D6E240E9E6E010E9B6E000E9C6E000E56
:10091A000F6E000E106E5AEC05F0000E0F6E000EF0
:10092A00106E55EC05F0000E0F6E000E106E5FECA7
:10093A0005F0000E146E12000E01CA91F280E20E4A
:10094A000F6E0A0E106E50EC05F00E01C281CA93AA
:10095A00F282E00E0F6E0A0E106E4BEC05F00E01DD
:10096A00C283CA95F284000E0F6E000E106E46EC1A
:10097A0005F0120009500A10D8B4C6EF04F0C8EF07
:10098A0004F0D5EF04F002D8D5EF04F00500FA6EB2
:10099A000950FD6E0A50FE6EF850FF6EFA501200B2
:1009AA0012000B500C10D8B4DDEF04F0DFEF04F0A6
:1009BA00ECEF04F002D8ECEF04F00500FA6E0B50ED
:1009CA00FD6E0C50FE6EF850FF6EFA5012001200C7
:1009DA00FDEC04F0010E126E080E136E12C010F038
:1009EA0013C011F05DEC04F0F3EF04F032EF00F005
:1009FA006EEC05F00CEC05F005EC04F026EC05F0C5
:100A0A0035EC04F0A1EC04F082EC04F01200000EC4
:100A1A000E01E16F000EE26F000EE36F000EE46F4D
:100A2A00000EE56F000EE66F12000F6E0E01CDA9E3
:100A3A0021EF05F023EF05F01BEF05F00FC09AFF39
:100A4A001200700E0E01D86F000EDA6F000EDC6F06
:100A5A00020EDE6F000EDD6F1200818E819C146A19
:100A6A0015901592000EF86E0001EDEF04F09EB29B
:100A7A0041EF05F044EF05F0010E45EF05F0000ED9
:100A8A0012000FC007F010C008F012000FC009F0E2
:100A9A0010C00AF012000FC00BF010C00CF01200C8
:100AAA000FC003F010C004F012000FC005F010C010
:100ABA0006F012000FC001F010C002F012000E0181
:100ACA00CA93BFEC04F012000E01CA91D6EC04F0EE
:0A0ADA001200F29A1200120012003E
:020000040020DA
:10000000FF0FFF0FFF0FFF0FFF0FFF0FFF0FFF0F80
:020000040030CA
:0C000000FCFFFFFF9FFFFFFFFFFFFFFF63
:00000001FF
