:040000007DEF00F0A0
:100008005B82FACF01F0FBCF02F0D9CF03F0DACF51
:1000180004F00E01C2A113EF00F015EF00F020EF7D
:1000280000F0CAA11AEF00F01CEF00F020EF00F07A
:10003800E4EC08F073EF00F0C2A325EF00F027EF1F
:1000480000F032EF00F0CAA32CEF00F02EEF00F022
:1000580032EF00F0DFEC08F073EF00F0F2AC37EFAE
:1000680000F039EF00F073EF00F0C5A93EEF00F0A3
:1000780040EF00F056EF00F0CDA945EF00F047EF54
:1000880000F056EF00F002D854EF00F00500FA6EC9
:100098005450FD6E5550FE6EF850FF6EFA50120027
:1000A80073EF00F0C5AB5BEF00F05DEF00F073EFAE
:1000B80000F0CDAB62EF00F064EF00F073EF00F0FA
:1000C80002D871EF00F00500FA6E5250FD6E5350E1
:1000D800FE6EF850FF6EFA50120073EF00F004C085
:1000E800DAFF03C0D9FF02C0FBFF01C0FAFF5B9231
:0600F800110034EF07F0D7
:100800000041540D0A002573000020EEDBF010EECD
:1008100013F0060EDBCFE3FFE806FCE210C01EF08B
:1008200011C01FF01E501F10D8A419EF04F01BEFC9
:1008300004F01FEF04F0130E1E6E000E1F6E1EC09C
:1008400005F01FC006F0F6EC07F005C022F006C068
:1008500023F046C020F047C021F021BE32EF04F063
:1008600034EF04F049EF04F02250205C2150800A5C
:10087000126E2350800A1258D8A041EF04F043EFC3
:1008800004F045EF04F049EF04F020C022F021C04D
:1008900023F022C020F023C021F044C01CF045C04A
:1008A0001DF048B056EF04F058EF04F075EF04F077
:1008B00066EF04F0000E066E200E056E0EC007F007
:1008C0000FC008F0D8EC05F0224A232A1C50225C05
:1008D0002350800A126E1D50800A1258D8A073EF60
:1008E00004F075EF04F05AEF04F0000E1B6E000EDA
:1008F0001A6E8EEF04F01EC0D9FF1FC0DAFFDF5062
:10090000126E1250056E066A0EC007F00FC008F096
:10091000D8EC05F01E4A1F2A1A4A1B2A20501A5CDE
:100920001B50800A126E2150800A1258D8A09BEFEB
:1009300004F09DEF04F07BEF04F048A0A2EF04F078
:10094000A4EF04F0C1EF04F0B2EF04F0000E066E65
:10095000200E056E0EC007F00FC008F0D8EC05F0B1
:10096000224A232A1C50225C2350800A126E1D50FA
:10097000800A1258D8A0BFEF04F0C1EF04F0A6EF30
:1009800004F022C00EF023C00FF0120026C0D9FFE1
:1009900027C0DAFFDECFF6FFDDCFF7FF0800F55006
:1009A000250AD8A4D6EF04F0D8EF04F05CEF05F0E8
:1009B00026C0D9FF27C0DAFFDE2A000EDD22000E96
:1009C000456E000E446E44C048F045C049F046688C
:1009D000476826C0D9FF27C0DAFFDECFF6FFDDCF9C
:1009E000F7FF0800F550730AD8A4F9EF04F0FBEF05
:1009F00004F026EF05F026C0D9FF27C0DAFFDE2A73
:100A0000000EDD2228C0D9FF29C0DAFFDFCF2AF08F
:100A1000020EDE26DFCF2BF0000EDD222AC0D9FF2A
:100A20002BC0DAFFDECF2CF0DDCF2DF024C00EF08E
:100A300025C00FF02CC010F02DC011F005EC04F013
:100A40000EC024F00FC025F077EF05F026C0D9FFC7
:100A500027C0DAFFDECFF6FFDDCFF7FF0800F55045
:100A6000250AD8A436EF05F038EF05F04FEF05F072
:100A700026C0D9FF27C0DAFFDE2A000EDD22000ED5
:100A8000066E250E056E24C007F025C008F0D8ECD0
:100A900005F0000E256E010E246E77EF05F026C0DE
:100AA000D9FF27C0DAFFDE2A000EDD22000E256EF8
:100AB000000E246E77EF05F026C0D9FF27C0DAFFBD
:100AC000DECFF6FFDDCFF7FF0800F550056E066AB2
:100AD00024C007F025C008F0D8EC05F026C0D9FFE7
:100AE00027C0DAFFDE2A000EDD2249EF05F01200F2
:100AF0003A0E4D24D96EDA6A000EDA22000EDF6E4D
:100B00009DA485EF05F087EF05F09BEF05F03A0E09
:100B10004D24D96EDA6A000EDA22DF8202D89BEF0A
:100B200005F00500FA6E5050FD6E5150FE6EF85003
:100B3000FF6EFA5012009DA2A0EF05F0A2EF05F0A3
:100B4000B7EF05F03A0E4D24D96EDA6A000EDA22BC
:100B5000DF8402D8B7EF05F005000001FA6EE4511A
:100B6000FD6EE551FE6EF850FF6EFA5012003A0E1F
:100B70004D24D96EDA6A000EDA22DF50D8B4C3EF02
:100B800005F0C5EF05F0D5EF05F002D8D3EF05F07D
:100B900005000001FA6EE251FD6EE351FE6EF85061
:100BA000FF6EFA501200D7EF05F055EC08F0120076
:100BB00007500810D8B4DFEF05F0E1EF05F0EAEFD9
:100BC00005F007500810D8A4E8EF05F0EAEF05F0AB
:100BD000EFEF05F00550F5EC08F022EF06F020EEFF
:100BE00004F00750D9260850DA22DE50DE10D8B4BF
:100BF000FCEF05F0FEEF05F019EF06F020EE04F033
:100C00000750D9260850DA2210EE02F00750E126EC
:100C10000850E222DE50E65CE650800A0D6EDE509F
:100C2000800A0D58D8B017EF06F019EF06F022EF42
:100C300006F020EE02F00750D9260850DA22DE2A0C
:100C4000000EDD2212007EEC08F020EE63F0630E51
:100C5000DE6AE806FDE2010E0001C76F080EC86FEC
:100C6000A7EC08F00009D8B438EF06F03AEF06F028
:100C700030EF06F0C7C006F0C8C007F0B0EC07F0D0
:100C8000000E0001CA6F000EC96F55EF06F05FEC51
:100C900007F00001626F630EC925D96E000ECA21EC
:100CA000DA6E62C0DFFFC94BCA2BCA5109E1640E7C
:100CB000C95DD8A05EEF06F060EF06F047EF06F0E2
:100CC000060E366E080E376E630E386E000E396EE5
:100CD0006AEC08F07DEF00F00E01C59BF00E056E8A
:100CE0000A0E066ECBEC08F00E01C599AA0E056E31
:100CF0000F0E066EC6EC08F0080E9F6E900E9D6EED
:100D0000240E9E6E8A0E9B6E000E9C6EF00E056E7B
:100D1000110E066ED5EC08F0DA0E056E110E066E99
:100D2000D0EC08F0E00E056E110E066EDAEC08F05D
:100D3000000E4A6E000E4F6E000E4E6E080E5A6E7A
:100D4000000E4D6E000E4C6E000E4B6E0E01C58BEC
:100D50001200000E836E000E846E000E856E886891
:100D60008968BF0E8A6E7F0E0F01216FFC0E196F0E
:100D70001169000E2D6F000E186F000E106F000E1F
:100D8000206F000E0F6F000E176F000E1F6F0E69A1
:100D900016691E690D6915691D69080E2A6F170EFF
:100DA0000E01B56F080EA16F090EA26F090EFD6F3F
:100DB000120030C034F031C035F0000E436E000E2A
:100DC000426EF5EF06F02EC024F02FC025F0340E51
:100DD000266E000E276E32C028F033C029F0C6EC14
:100DE00004F0245042262550432234C0F6FF35C07B
:100DF000F7FF0800F5500009D8A401EF07F003EF52
:100E000007F0E3EF06F042C02EF043C02FF01200CF
:100E1000056E5A50D8B40FEF07F011EF07F009EF45
:100E200007F00E01C5B917EF07F019EF07F01DEF36
:100E300007F005C09AFF32EF07F0C599D30E4F2493
:100E4000D96EDA6A000EDA2205C0DFFF4F2A070EDC
:100E50004F642DEF07F02FEF07F031EF07F0000E92
:100E60004F6E5A06C5891200818E819CD20EF66E95
:100E7000110EF76E000EF86E00EEDBF010EE07F0CC
:100E80000900F5CFEEFFE550E150FAE101EE00F088
:100E9000840EEE6AE806FDE100EECBF0100EEE6A7D
:100EA000E806FDE100EE3AF0160EEE6AE806FDE116
:100EB0005B905B92000EF86E000123EF06F04B5042
:100EC000D8B465EF07F067EF07F05FEF07F03A0E71
:100ED0004C24D96EDA6A000EDA22DF504A6ECB0E4D
:100EE0004C24D96EDA6A000EDA22DF50056E4C2AE5
:100EF000070E4C647EEF07F080EF07F082EF07F0FB
:100F0000000E4C6E0E01C59B4B06C58B05501200A2
:100F1000000E6A6E000E6B6E000E6C6E000E6D6E33
:100F2000000E686E000E696E000E666E000E0F01F8
:100F30005F6F000E5D6F000E5E6F000E596F020E48
:100F40005A6F000E5B6F000E656E000E586F000E3C
:100F5000566F000E576F940E606E000E5C6F12009D
:100F6000C6EF07F0B2EC08F00009D8B4BAEF07F00A
:100F7000BCEF07F0C6EF07F006C0F6FF07C0F7FFAB
:100F80000800F55008EC07F0064A072A06C0F6FFED
:100F900007C0F7FF0800F5500009D8A4D2EF07F00A
:100FA000D4EF07F0B2EF07F01200080E5A60DBEF43
:100FB00007F0DDEF07F0F3EF07F0D30E4E24D96E04
:100FC000DA6A000EDA22DF509A6E4E2A070E4E645D
:100FD000ECEF07F0EEEF07F0F0EF07F0000E4E6ECB
:100FE0005A2AF5EF07F00E01C599120005C007F067
:100FF00006C008F0FEEF07F0054A062A05C0D9FF33
:1010000006C0DAFFDF50D8A408EF08F00AEF08F0B6
:10101000FCEF07F00750055C056E08500658066E99
:10102000120056505710D8B418EF08F01AEF08F015
:1010300027EF08F002D827EF08F00500FA6E5650A7
:10104000FD6E5750FE6EF850FF6EFA5012001200FF
:1010500058505910D8B42FEF08F031EF08F03EEF98
:1010600008F002D83EEF08F00500FA6E5850FD6E09
:101070005950FE6EF850FF6EFA50120012000E0129
:10108000CA91F280EE0E056E110E066EC1EC08F0EC
:101090000E01C281CA93F282EC0E056E110E066E2D
:1010A000BCEC08F00E01C2831200CB0E4D24D96EA9
:1010B000DA6A000EDA2299CFDFFF4D2A070E4D645F
:1010C00064EF08F066EF08F068EF08F0000E4D6E70
:1010D0004B2A1200380E0001606F000E616F000E87
:1010E0002E6E000E2F6E36C030F037C031F0600E1D
:1010F000326E000E336ED9EC06F01200F3EC08F0FD
:101100008DEC08F0A9EC06F09BEC08F088EC07F0F9
:101110003FEC08F06CEC06F01200000E0E01E16FDF
:10112000000EE26F000EE36F000EE46F000EE56F3D
:10113000000EE66F1200600E0E01D86F000EDA6F1F
:10114000000EDC6F080EDE6F000EDD6F12005A50CD
:10115000D8A4ADEF08F0B0EF08F0010EB1EF08F041
:10116000000E12009EB2B7EF08F0BAEF08F0010EC1
:10117000BBEF08F0000E120005C056F006C057F095
:10118000120005C058F006C059F0120005C054F016
:1011900006C055F0120005C052F006C053F0120010
:1011A00005C0E4F006C0E5F0120005C050F006C02E
:1011B00051F0120005C0E2F006C0E3F012000E018B
:1011C000CA9311EC08F012000E01CA9128EC08F045
:0911D0001200286E756C6C2900F8
:1011DA009D989D88120055EC08F01200F29A1200B0
:0811EA001200120012001200B5
:020000040020DA
:10000000FF0FFF0FFF0FFF0FFF0FFF0FFF0FFF0F80
:020000040030CA
:0C0000008CFFFFFF9FFFFFDFFFFFFFFFF3
:00000001FF
